{
  "transactions": [
    {
      "hash": "0x2f332639bb9915d3a59325fe5db58c160b7bfb2793156744139bc27d8c1e231d",
      "transactionType": "CREATE",
      "contractName": "DevOpsTools",
      "contractAddress": "0x554C601bB897B3E82f0Ab4a1F181BfF6Bf349BA4",
      "function": null,
      "arguments": null,
      "transaction": {
        "type": "0x02",
        "from": "0x9a8b46e3f9d7ebfb60f37d28af3fe1681bede739",
        "gas": "0xd48d2",
        "data": "0x6080806040523461001c57610b2690816100228239308160080152f35b600080fdfe604060808152307f000000000000000000000000000000000000000000000000000000000000000014906004918236101561003957600080fd5b600090813560e01c806326dceeb7146101995780632aa1c696146101805780633a76846314610156578063a6066fa514610139578063d76ca83d146100e95763e374cdf11461008757600080fd5b6100e657816003193601126100e65782359067ffffffffffffffff82116100e657506100bb6020936100d59236910161027a565b6100c36102c6565b6100cb610335565b9160243590610663565b90516001600160a01b039091168152f35b80fd5b505060203660031901126100e65782359067ffffffffffffffff82116100e6575061011d610135936101229236910161027a565b6103e5565b9051918291602083526020830190610310565b0390f35b8284816003193601126101525761013590610122610335565b5080fd5b8284816003193601126101525760209051737109709ecfa91a80626ff3989d68f67f5b1dd12d8152f35b82848160031936011261015257610135906101226102c6565b506100e65760803660031901126100e65767ffffffffffffffff928035848111610206576101ca903690830161027a565b93604435818111610202576101e2903690840161027a565b926064359182116100e65750916100cb602095926100d59436910161027a565b8380fd5b8280fd5b6040810190811067ffffffffffffffff82111761022657604052565b634e487b7160e01b600052604160045260246000fd5b90601f8019910116810190811067ffffffffffffffff82111761022657604052565b67ffffffffffffffff811161022657601f01601f191660200190565b81601f820112156102c1578035906102918261025e565b9261029f604051948561023c565b828452602083830101116102c157816000926020809301838601378301015290565b600080fd5b604051906102d38261020a565b600b82526a0b8bd89c9bd85918d85cdd60aa1b6020830152565b60005b8381106103005750506000910152565b81810151838201526020016102f0565b90602091610329815180928185528580860191016102ed565b601f01601f1916010190565b604051906060820182811067ffffffffffffffff8211176102265760405260318252700cadce8bec8cae0d8def2dacadce85ce6d607b1b6040837f2e2f6c69622f666f756e6472792d6465766f70732f7372632f6765745f72656360208201520152565b60001981146103a85760010190565b634e487b7160e01b600052601160045260246000fd5b9081518110156103cf570160200190565b634e487b7160e01b600052603260045260246000fd5b906000908251825b845181101561053a57600160fd1b6001600160f81b031961040e83886103be565b5116036104235761041e90610399565b6103ed565b90919250925b8051805b6104f5575b506001600160f81b031993601760f91b8561044d83856103be565b5116146104d3575b8083039283116103a8576104688361025e565b92610476604051948561023c565b808452610485601f199161025e565b0136602085013760005b83518110156104cb57808201908183116103a857866104b16104c693866103be565b511660001a6104c082876103be565b53610399565b61048f565b509193505050565b600181018091111561045557634e487b7160e01b600052601160045260246000fd5b60001981018181116103a857600160fd1b906001600160f81b03199061051b90856103be565b5116036105325780156103a857600019018061042d565b915038610432565b50909192610429565b8051156103cf5760200190565b8051600110156103cf5760400190565b8051600210156103cf5760600190565b8051600310156103cf5760800190565b8051600410156103cf5760a00190565b9092919261059d8161025e565b916105ab604051938461023c565b8294828452828201116102c15760206105c59301906102ed565b565b6020818303126102c15780519067ffffffffffffffff82116102c157019080601f830112156102c15781516105fe92602001610590565b90565b602080820190808352835180925260408301928160408460051b8301019501936000915b8483106106355750505050505090565b9091929394958480610653600193603f198682030187528a51610310565b9801930193019194939290610625565b9293909161067b6106756000926103e5565b956103e5565b9460409182519461068b8661020a565b60018652815b6020808210156106ac57906060602092828a01015201610691565b5050919396959092958651946106c18661020a565b60038652602095621c1dd960ea1b878201526106dc88610543565b526106e687610543565b50875190638916046760e01b928383528261070560049a8b8301610601565b03948784737109709ecfa91a80626ff3989d68f67f5b1dd12d9781838a5af1938415610ae6578894610aca575b508a519667ffffffffffffffff9160c089018381118a821017610ab7578d52600589528a8a5b60a08110610aa75750508c5161076d8161020a565b8c8152630c4c2e6d60e31b8c8201526107858a610543565b5261078f89610543565b508c516107cb8c82895197828b01986107ab818585018c6102ed565b82016107bf825180938680850191016102ed565b0103808452018261023c565b6107d48a610550565b526107de89610550565b506107e889610560565b526107f288610560565b508b519063348051d760e11b82528b82015288816024818a5afa918215610a9d57918c918b969594938b92610a24575b505093899896949361088c9361085f6021946108b39d9b99976108448c610570565b5261084e8b610570565b5051968794519283918601906102ed565b8201602f60f81b8d82015261087d8d835193849187850191016102ed565b0103600181018452018261023c565b61089584610580565b5261089f83610580565b5083895180978195829483528b8301610601565b03925af1918215610a185781926109f4575b50808086516108d38161020a565b600c81526b2932ba3ab937102230ba309d60a11b8682015287518280826109118a82019563104c13eb60e21b87528b60248401526044830190610310565b0392610925601f199485810183528261023c565b516a636f6e736f6c652e6c6f6794855afa50885161096a888201926305f3bfab60e11b84528960248401528261095e604482018b610310565b0390810183528261023c565b51915afa50508051908201516bffffffffffffffffffffffff19918282169190601481106109df575b505060601c93905083156109a75750505090565b5162461bcd60e51b8152918201526014602482015273139bc818dbdb9d1c9858dd0819195c1b1bde595960621b604482015260649150fd5b8391925060140360031b1b1616803880610993565b610a119192503d8084833e610a09818361023c565b8101906105c7565b90386108c5565b508451903d90823e3d90fd5b92509293949550503d808a843e610a3b818461023c565b8201918a81840312610a99578051918211610a99570181601f82011215610a955788979593946108b39997958b9461085f8f610a8161088c97878a602199519101610590565b94989a9c5094505093819597999b50610822565b8880fd5b8980fd5b8c513d8b823e3d90fd5b606082828d010152018b90610758565b634e487b7160e01b8b5260418d5260248bfd5b610adf9194503d808a833e610a09818361023c565b9238610732565b8b513d8a823e3d90fdfea26469706673582212200ed7fddb52dba3bd4adfdbb4cc4b4ae5402a8c23832564702813e2bb3a2e519a64736f6c63430008120033",
        "nonce": "0x76e",
        "accessList": []
      },
      "additionalContracts": [],
      "isFixedGasLimit": false
    },
    {
      "hash": "0xdb2e37b53c797c739e8ec9ab0140240ebd1bab775447ed79c37e1add290e0cb6",
      "transactionType": "CALL",
      "contractName": "LinkToken",
      "contractAddress": "0x779877A7B0D9E8603169DdbD7836e478b4624789",
      "function": "transferAndCall(address,uint256,bytes):(bool)",
      "arguments": [
        "0x8103B0A8A00be2DDC778e6e7eaa21791Cd364625",
        "3000000000000000000",
        "0x0000000000000000000000000000000000000000000000000000000000001324"
      ],
      "transaction": {
        "type": "0x02",
        "from": "0x9a8b46e3f9d7ebfb60f37d28af3fe1681bede739",
        "to": "0x779877a7b0d9e8603169ddbd7836e478b4624789",
        "gas": "0x13fbe",
        "value": "0x0",
        "data": "0x4000aea00000000000000000000000008103b0a8a00be2ddc778e6e7eaa21791cd36462500000000000000000000000000000000000000000000000029a2241af62c0000000000000000000000000000000000000000000000000000000000000000006000000000000000000000000000000000000000000000000000000000000000200000000000000000000000000000000000000000000000000000000000001324",
        "nonce": "0x76f",
        "accessList": []
      },
      "additionalContracts": [],
      "isFixedGasLimit": false
    },
    {
      "hash": "0x3654052d619afd3271073762e3be5fac8280b07b4b9e96d746f6a5063893ac16",
      "transactionType": "CREATE",
      "contractName": "Raffle",
      "contractAddress": "0xdF18532705FE47e812d70b0EBd3dBB52E7d4C46d",
      "function": null,
      "arguments": [
        "10000000000000000",
        "30",
        "0x8103B0A8A00be2DDC778e6e7eaa21791Cd364625",
        "0x474e34a077df58807dbe9c96d3c009b23b3c6d0cce433e59bbf5b34f823bc56c",
        "4900",
        "500000"
      ],
      "transaction": {
        "type": "0x02",
        "from": "0x9a8b46e3f9d7ebfb60f37d28af3fe1681bede739",
        "gas": "0xc8604",
        "value": "0x0",
        "data": "0x6101603461010c576001600160401b03601f610b1d38819003918201601f1916840191838311858410176101115780859260c09460405283398101031261010c57815160208301516040840151916001600160a01b038316919082840361010c576060860151956080810151958616860361010c5760a001519363ffffffff8516850361010c5760805260a05260c05260e0526101009283526101209182526101409081524260015560ff60a01b1960025416600255604051916109f593846101288539608051846106b1015260a05184818161054701526108c6015260c0518481816101820152610314015260e05184610430015251836103a1015251826103c9015251816103f90152f35b600080fd5b634e487b7160e01b600052604160045260246000fdfe608060408181526004918236101561001657600080fd5b600092833560e01c9182630164294c146108af57508163115cbaf51461086d5781631fe543e31461062e5781632cfcc539146105385781634585e33b146102b2578163473f1ddc146102895781635e6c102e1461010a578163c1c244e8146100eb578163e55ae4e8146100b2575063f7343d7a1461009357600080fd5b346100ae57816003193601126100ae57602091549051908152f35b5080fd5b8284346100e85760203660031901126100e857506100d260209235610975565b905491519160018060a01b039160031b1c168152f35b80fd5b5050346100ae57816003193601126100ae576020906001549051908152f35b8284346100e8576020806003193601126100ae57833567ffffffffffffffff8111610285573660238201121561028557808501359061014882610959565b9061015586519283610937565b82825236602484830101116102815791839181602487950184830137010152600154420342811161026e577f000000000000000000000000000000000000000000000000000000000000000011159360ff60025460a01c1690600282101561025b5750471515835415159186610252575b508561024a575b5084610242575b509290918051926101e48461091b565b600384526203078360ec1b85850152815194859315158452828185015284518093850152815b83811061022b57505060608094508284010152601f80199101168101030190f35b80860182015187820160600152869450810161020a565b9350846101d4565b9450856101cd565b159550866101c6565b634e487b7160e01b845260219052602483fd5b634e487b7160e01b835260118552602483fd5b8480fd5b8280fd5b5050346100ae57816003193601126100ae5760025490516001600160a01b039091168152602090f35b905034610285576020806003193601126105345767ffffffffffffffff82358181116105305736602382011215610530578084013582811161052c573691016024011161028157848451610305816108e9565b526001544203428111610519577f000000000000000000000000000000000000000000000000000000000000000011156002549060ff8260a01c1690600282101561050657875490471515816104fd575b816104f5575b50806104ec575b6203078360ec1b8689516103768161091b565b600381520152156104c957505060ff60a01b1916600160a01b1760025583516305d3b1d360e41b81527f0000000000000000000000000000000000000000000000000000000000000000938101939093527f00000000000000000000000000000000000000000000000000000000000000001660248301526003604483018190527f000000000000000000000000000000000000000000000000000000000000000063ffffffff1660648401526084830152808260a481877f00000000000000000000000000000000000000000000000000000000000000006001600160a01b03165af19283156104c057508392610492575b50507fcd6e45c8998311cab7e9d4385596cac867e20a0587194b954fa3a731c93ce78b8280a280f35b90809250813d83116104b9575b6104a98183610937565b810103126100ae57513880610469565b503d61049f565b513d85823e3d90fd5b60649186918847905193631d46b04360e11b855284015260248301526044820152fd5b50801515610363565b90503861035c565b83159150610356565b634e487b7160e01b885260218652602488fd5b634e487b7160e01b865260118452602486fd5b8680fd5b8580fd5b8380fd5b8383816003193601126100ae577f0000000000000000000000000000000000000000000000000000000000000000341061061f5760ff60025460a01c16600281101561060c576105fd57508054680100000000000000008110156105ea578060016105a592018355610975565b81546001600160a01b0360039290921b91821b1916339182901b179091557f819fbd717c9d0b421352c5116a644ca68ba176960c33f406f08d98a27370ca278280a280f35b506041602492634e487b7160e01b835252fd5b5163050955c760e21b81529050fd5b634e487b7160e01b835260218452602483fd5b5163fb41e5c760e01b81529050fd5b919050346102855780600319360112610285576024803567ffffffffffffffff918282116105305736602383011215610530578185013592831161085c578260051b84519260209461068286840186610937565b8452848401838193830101913683116108585784879101915b83831061084857506001600160a01b03959250507f0000000000000000000000000000000000000000000000000000000000000000851690503381900361082b5750511561081957518654918215610808575090826107278289940661070081610975565b9690546002549760031b1c166bffffffffffffffffffffffff60a01b871617600255610975565b90549060031b1c1680936affffffffffffffffffffff60a81b1617600255818551610751816108e9565b528180557f290decd9548b62a8d60345a988386fc84ba6bc95484008f6362f93160ef3e563908101905b8181106107fb5750508080809381805242600155807fb112587e57bfa970257f3d54fc52859c6300f6bd7a982462c320fed45c2530ed8380a247905af1903d156107f557843d916107cb83610959565b926107d886519485610937565b83523d92013e5b156107e8578280f35b5163a1d04b3960e01b8152fd5b506107df565b918255869160010161077b565b634e487b7160e01b88526012875287fd5b50634e487b7160e01b86526032855285fd5b865163073e64fd60e21b815233818a015280850191909152604490fd5b823581529181019187910161069b565b8980fd5b634e487b7160e01b86526041855285fd5b8383346100ae57816003193601126100ae5760ff60025460a01c16905191600282101561089c57602083838152f35b634e487b7160e01b815260218452602490fd5b8490346100ae57816003193601126100ae576020907f00000000000000000000000000000000000000000000000000000000000000008152f35b6020810190811067ffffffffffffffff82111761090557604052565b634e487b7160e01b600052604160045260246000fd5b6040810190811067ffffffffffffffff82111761090557604052565b90601f8019910116810190811067ffffffffffffffff82111761090557604052565b67ffffffffffffffff811161090557601f01601f191660200190565b9060009182548110156109ab578280527f290decd9548b62a8d60345a988386fc84ba6bc95484008f6362f93160ef3e563019190565b634e487b7160e01b83526032600452602483fdfea2646970667358221220cc1cbb73a3456f8b9381ed1c0c794b6acacf7ff4f78fbfe7e3c7e52da95f9e1864736f6c63430008120033000000000000000000000000000000000000000000000000002386f26fc10000000000000000000000000000000000000000000000000000000000000000001e0000000000000000000000008103b0a8a00be2ddc778e6e7eaa21791cd364625474e34a077df58807dbe9c96d3c009b23b3c6d0cce433e59bbf5b34f823bc56c0000000000000000000000000000000000000000000000000000000000001324000000000000000000000000000000000000000000000000000000000007a120",
        "nonce": "0x770",
        "accessList": []
      },
      "additionalContracts": [],
      "isFixedGasLimit": false
    },
    {
      "hash": "0xe189e5a89c7c1ebc1da6bd82a365e595ca874c50550c0a85c7664fe210cd1a09",
      "transactionType": "CALL",
      "contractName": "VRFCoordinatorV2",
      "contractAddress": "0x8103B0A8A00be2DDC778e6e7eaa21791Cd364625",
      "function": "addConsumer(uint64,address)",
      "arguments": [
        "4900",
        "0xdF18532705FE47e812d70b0EBd3dBB52E7d4C46d"
      ],
      "transaction": {
        "type": "0x02",
        "from": "0x9a8b46e3f9d7ebfb60f37d28af3fe1681bede739",
        "to": "0x8103b0a8a00be2ddc778e6e7eaa21791cd364625",
        "gas": "0x1a446",
        "value": "0x0",
        "data": "0x7341c10c0000000000000000000000000000000000000000000000000000000000001324000000000000000000000000df18532705fe47e812d70b0ebd3dbb52e7d4c46d",
        "nonce": "0x771",
        "accessList": []
      },
      "additionalContracts": [],
      "isFixedGasLimit": false
    }
  ],
  "receipts": [
    {
      "transactionHash": "0x2f332639bb9915d3a59325fe5db58c160b7bfb2793156744139bc27d8c1e231d",
      "transactionIndex": "0x4",
      "blockHash": "0x1f8114628e4ef6c51a1acf038e5259a67cf36e9cbe3bd04ae6ad3ed16ec746a5",
      "blockNumber": "0x402df2",
      "from": "0x9A8b46e3f9d7ebFb60f37D28af3fe1681BEdE739",
      "to": null,
      "cumulativeGasUsed": "0x1bb251",
      "gasUsed": "0xa38ba",
      "contractAddress": "0x554C601bB897B3E82f0Ab4a1F181BfF6Bf349BA4",
      "logs": [],
      "status": "0x1",
      "logsBloom": "0x00000000000000000000000000000000000000000000000000000000000000000000000000000000000000000000000000000000000000000000000000000000000000000000000000000000000000000000000000000000000000000000000000000000000000000000000000000000000000000000000000000000000000000000000000000000000000000000000000000000000000000000000000000000000000000000000000000000000000000000000000000000000000000000000000000000000000000000000000000000000000000000000000000000000000000000000000000000000000000000000000000000000000000000000000000000",
      "type": "0x2",
      "effectiveGasPrice": "0xb2d3bd26"
    },
    {
      "transactionHash": "0xdb2e37b53c797c739e8ec9ab0140240ebd1bab775447ed79c37e1add290e0cb6",
      "transactionIndex": "0x5",
      "blockHash": "0x1f8114628e4ef6c51a1acf038e5259a67cf36e9cbe3bd04ae6ad3ed16ec746a5",
      "blockNumber": "0x402df2",
      "from": "0x9A8b46e3f9d7ebFb60f37D28af3fe1681BEdE739",
      "to": "0x779877A7B0D9E8603169DdbD7836e478b4624789",
      "cumulativeGasUsed": "0x1c99cf",
      "gasUsed": "0xe77e",
      "contractAddress": null,
      "logs": [
        {
          "address": "0x779877A7B0D9E8603169DdbD7836e478b4624789",
          "topics": [
            "0xddf252ad1be2c89b69c2b068fc378daa952ba7f163c4a11628f55a4df523b3ef",
            "0x0000000000000000000000009a8b46e3f9d7ebfb60f37d28af3fe1681bede739",
            "0x0000000000000000000000008103b0a8a00be2ddc778e6e7eaa21791cd364625"
          ],
          "data": "0x00000000000000000000000000000000000000000000000029a2241af62c0000",
          "blockHash": "0x1f8114628e4ef6c51a1acf038e5259a67cf36e9cbe3bd04ae6ad3ed16ec746a5",
          "blockNumber": "0x402df2",
          "transactionHash": "0xdb2e37b53c797c739e8ec9ab0140240ebd1bab775447ed79c37e1add290e0cb6",
          "transactionIndex": "0x5",
          "logIndex": "0xc",
          "removed": false
        },
        {
          "address": "0x779877A7B0D9E8603169DdbD7836e478b4624789",
          "topics": [
            "0xe19260aff97b920c7df27010903aeb9c8d2be5d310a2c67824cf3f15396e4c16",
            "0x0000000000000000000000009a8b46e3f9d7ebfb60f37d28af3fe1681bede739",
            "0x0000000000000000000000008103b0a8a00be2ddc778e6e7eaa21791cd364625"
          ],
          "data": "0x00000000000000000000000000000000000000000000000029a2241af62c0000000000000000000000000000000000000000000000000000000000000000004000000000000000000000000000000000000000000000000000000000000000200000000000000000000000000000000000000000000000000000000000001324",
          "blockHash": "0x1f8114628e4ef6c51a1acf038e5259a67cf36e9cbe3bd04ae6ad3ed16ec746a5",
          "blockNumber": "0x402df2",
          "transactionHash": "0xdb2e37b53c797c739e8ec9ab0140240ebd1bab775447ed79c37e1add290e0cb6",
          "transactionIndex": "0x5",
          "logIndex": "0xd",
          "removed": false
        },
        {
          "address": "0x8103B0A8A00be2DDC778e6e7eaa21791Cd364625",
          "topics": [
            "0xd39ec07f4e209f627a4c427971473820dc129761ba28de8906bd56f57101d4f8",
            "0x0000000000000000000000000000000000000000000000000000000000001324"
          ],
          "data": "0x0000000000000000000000000000000000000000000000003782dace9d9000000000000000000000000000000000000000000000000000006124fee993bc0000",
          "blockHash": "0x1f8114628e4ef6c51a1acf038e5259a67cf36e9cbe3bd04ae6ad3ed16ec746a5",
          "blockNumber": "0x402df2",
          "transactionHash": "0xdb2e37b53c797c739e8ec9ab0140240ebd1bab775447ed79c37e1add290e0cb6",
          "transactionIndex": "0x5",
          "logIndex": "0xe",
          "removed": false
        }
      ],
      "status": "0x1",
      "logsBloom": "0x0000001400000000000008000000000000000000000000020000800002000000000000000000800000000000000000000000000000000000000000000000000000000000000000000000000800000000000000000000000000802000000000000008000000000000000000000000000000000000400000000000001000000000080000000c000020000000000000800010000020000000000000000000200000000000000000000000000000000000000000000000000000000400000000000000000002000000000000000000000000000000000000000100000000000000000000000000000000000000000000000000000000000000000000000000000000",
      "type": "0x2",
      "effectiveGasPrice": "0xb2d3bd26"
    },
    {
      "transactionHash": "0x3654052d619afd3271073762e3be5fac8280b07b4b9e96d746f6a5063893ac16",
      "transactionIndex": "0x6",
      "blockHash": "0x1f8114628e4ef6c51a1acf038e5259a67cf36e9cbe3bd04ae6ad3ed16ec746a5",
      "blockNumber": "0x402df2",
      "from": "0x9A8b46e3f9d7ebFb60f37D28af3fe1681BEdE739",
      "to": null,
      "cumulativeGasUsed": "0x263cb8",
      "gasUsed": "0x9a2e9",
      "contractAddress": "0xdF18532705FE47e812d70b0EBd3dBB52E7d4C46d",
      "logs": [],
      "status": "0x1",
      "logsBloom": "0x00000000000000000000000000000000000000000000000000000000000000000000000000000000000000000000000000000000000000000000000000000000000000000000000000000000000000000000000000000000000000000000000000000000000000000000000000000000000000000000000000000000000000000000000000000000000000000000000000000000000000000000000000000000000000000000000000000000000000000000000000000000000000000000000000000000000000000000000000000000000000000000000000000000000000000000000000000000000000000000000000000000000000000000000000000000",
      "type": "0x2",
      "effectiveGasPrice": "0xb2d3bd26"
    },
    {
      "transactionHash": "0xe189e5a89c7c1ebc1da6bd82a365e595ca874c50550c0a85c7664fe210cd1a09",
      "transactionIndex": "0x7",
      "blockHash": "0x1f8114628e4ef6c51a1acf038e5259a67cf36e9cbe3bd04ae6ad3ed16ec746a5",
      "blockNumber": "0x402df2",
      "from": "0x9A8b46e3f9d7ebFb60f37D28af3fe1681BEdE739",
      "to": "0x8103B0A8A00be2DDC778e6e7eaa21791Cd364625",
      "cumulativeGasUsed": "0x276cfe",
      "gasUsed": "0x13046",
      "contractAddress": null,
      "logs": [
        {
          "address": "0x8103B0A8A00be2DDC778e6e7eaa21791Cd364625",
          "topics": [
            "0x43dc749a04ac8fb825cbd514f7c0e13f13bc6f2ee66043b76629d51776cff8e0",
            "0x0000000000000000000000000000000000000000000000000000000000001324"
          ],
          "data": "0x000000000000000000000000df18532705fe47e812d70b0ebd3dbb52e7d4c46d",
          "blockHash": "0x1f8114628e4ef6c51a1acf038e5259a67cf36e9cbe3bd04ae6ad3ed16ec746a5",
          "blockNumber": "0x402df2",
          "transactionHash": "0xe189e5a89c7c1ebc1da6bd82a365e595ca874c50550c0a85c7664fe210cd1a09",
          "transactionIndex": "0x7",
          "logIndex": "0xf",
          "removed": false
        }
      ],
      "status": "0x1",
      "logsBloom": "0x0000000000000000000008000000000000000000000000000000800000000000000000000000000000000000000000000000000000000000000000000000000000000000000000000000000000000000000000000000000000000000000000000000000000008000000000000000000000000000000000000000000000000000000000000c000020000000000000000000000000000000000000000000200000000000000000000000000080000000000000000000000000000000000000000000000000000000000000000000000000000000000000000000020000000000000000000000000000000000000000000000000000000000000000000000000000",
      "type": "0x2",
      "effectiveGasPrice": "0xb2d3bd26"
    }
  ],
  "libraries": [
    "lib/foundry-devops/src/DevOpsTools.sol:DevOpsTools:0x554c601bb897b3e82f0ab4a1f181bff6bf349ba4"
  ],
  "pending": [],
  "returns": {
    "1": {
      "internal_type": "contract HelperConfig",
      "value": "0xC7f2Cf4845C6db0e1a1e91ED41Bcd0FcC1b0E141"
    },
    "0": {
      "internal_type": "contract Raffle",
      "value": "0xdF18532705FE47e812d70b0EBd3dBB52E7d4C46d"
    }
  },
  "timestamp": 1693597483,
  "chain": 11155111,
  "multi": false,
  "commit": "bb0716d"
}